:100000000C947F030C94A7030C94A7030C94A703F0
:100010000C94A7030C94A7030C94A7030C94A703B8
:100020000C94A7030C94A7030C94040E0C94730E69
:100030000C94A7030C94A7030C94A7030C94A70398
:100040000C94A7030C94A7030C94A7030C94A70388
:100050000C94A7030C94A7030C94A7030C94A5106D
:100060000C94A7030C94A7030C94A7030C94A70368
:100070000C94A7030C94A7030C94A7030C94A70358
:100080000C94A7030C94A7030C94A7030C94A70348
:100090000C94A7030C94A7030C94A7030C94A70338
:1000A0000C94A7030C94A7030C94A70305A84CCDAC
:1000B000B2D44EB93836A9020C50B9918688083CA2
:1000C000A6AAAA2ABE000000803F00000000003E51
:1000D0005B4F5B3E3E6B4F6B3E1C3E7C3E1C183CB8
:1000E0007E3C181C577D571C1C5E7F5E1C00183C14
:1000F0001800FFE7C3E7FF0018241800FFE7DBE75D
:10010000FF30483A060E2629792926407F05050743
:10011000407F05253F5A3CE73C5A7F3E1C1C08089F
:100120001C1C3E7F14227F22145F5F005F5F060964
:100130007F017F006689956A606060606094A2FFBD
:10014000A29408047E040810207E201008082A1CAF
:1001500008081C2A08081E101010100C1E0C1E0C7B
:1001600030383E3830060E3E0E060000000000001B
:10017000005F00000007000700147F147F14242A8A
:100180007F2A12231308646236495620500008075C
:100190000300001C2241000041221C002A1C7F1C7D
:1001A0002A08083E0808008070300008080808087F
:1001B000000060600020100804023E5149453E00E6
:1001C000427F400072494949462141494D33181444
:1001D000127F1027454545393C4A49493141211193
:1001E00009073649494936464949291E0000140085
:1001F00000004034000000081422411414141414A8
:10020000004122140802015909063E415D594E7C05
:100210001211127C7F494949363E414141227F41BA
:1002200041413E7F494949417F090909013E414118
:1002300051737F0808087F00417F41002040413F03
:10024000017F081422417F404040407F021C027F12
:100250007F0408107F3E4141413E7F090909063E67
:100260004151215E7F091929462649494932030136
:100270007F01033F4040403F1F2040201F3F403848
:10028000403F631408146303047804036159494D23
:1002900043007F4141410204081020004141417F59
:1002A00004020102044040404040000307080020CF
:1002B000545478407F2844443838444444283844CF
:1002C00044287F385454541800087E090218A4A406
:1002D0009C787F0804047800447D40002040403D25
:1002E000007F1028440000417F40007C047804789F
:1002F0007C080404783844444438FC182424181832
:10030000242418FC7C08040408485454542404048D
:100310003F44243C4040207C1C2040201C3C40307A
:10032000403C44281028444C9090907C4464544CA9
:100330004400083641000000770000004136080004
:1003400002010204023C2623263C1EA1A161123AAE
:100350004040207A385454555921555579412154FB
:10036000547841215554784020545579400C1E5200
:1003700072123955555559395454545939555454A4
:10038000580000457C410002457D420001457C400B
:10039000F0292429F0F0282528F07C545545002028
:1003A00054547C547C0A097F4932494949323248C5
:1003B000484832324A4848303A4141217A3A42402C
:1003C0002078009DA0A07D39444444393D40404000
:1003D0003D3C24FF2424487E4943662B2FFC2F2BD1
:1003E000FF0929F620C0887E090320545479410072
:1003F00000447D413048484A32384040227A007AF1
:100400000A0A727D0D19317D2629292F28262929CE
:10041000292630484D4020380808080808080808F0
:10042000382F10C8ACBA2F102834FA00007B000017
:1004300008142A142222142A14089500220095AACE
:10044000005500AAAA55AA55AA000000FF001010E6
:1004500010FF00141414FF001010FF00FF1010F024
:1004600010F0141414FC001414F700FF0000FF0037
:10047000FF1414F404FC141417101F10101F101F85
:100480001414141F00101010F0000000001F1010B2
:1004900010101F10101010F010000000FF101010AE
:1004A000101010101010FF10000000FF140000FFCB
:1004B00000FF00001F10170000FC04F414141710B4
:1004C000171414F404F40000FF00F71414141414A7
:1004D0001414F700F7141414171410101F101F141D
:1004E0001414F4141010F010F000001F101F00007E
:1004F000001F14000000FC140000F010F01010FFAA
:1005000010FF141414FF141010101F00000000F04E
:1005100010FFFFFFFFFFF0F0F0F0F0FFFFFF000023
:10052000000000FFFF0F0F0F0F0F38444438447CCA
:100530002A2A3E147E02020606027E027E026355CD
:100540004941633844443C04407E201E2006027E1C
:10055000020299A5E7A5991C2A492A1C4C7201722E
:100560004C304A4D4D303048784830BC625A463D98
:100570003E494949007E0101017E2A2A2A2A2A444D
:10058000445F444440514A444040444A5140000082
:10059000FF0103E080FF000008086B6B083612368D
:1005A0002436060F090F060000181800000010106E
:1005B000003040FF0101001F01011E00191D17122C
:1005C000003C3C3C3C0000000000F0F89C8E87831F
:1005D000878E9CF8F00000FEFF0303030303070E61
:1005E000FCF80000FEFF0303030303070EFCF80002
:1005F00000FFFF00000000000000FFFF0000FEFF02
:100600008383838383C7EE7C380000F8FC0E0703E6
:100610000303070EFCF800003F7FE0C08080C0E0CD
:100620007F3FFFFF01010101010101FFFF0000FF0A
:10063000FF0C0C0C0C1C3E77E3C100007FFFC0C018
:10064000C0C0C0E0703F1F00001F3F70E0C0C0C0CE
:10065000E0703F1F00007FFFC1C1C1C1C1E3773E11
:100660001C00001F3F70E0C0C0C0E0703F1F0000D2
:1006700000000001FFFF01000000D5F08D14A1C8AB
:1006800081CFD9F1AF2000080B000202020000095F
:1006900004000001020200000524001001052401ED
:1006A0000101042402060524060001070581031048
:1006B000004009040100020A000000070502024090
:1006C0000000070583024000000403090412010032
:1006D00002EF020140412336800001010203014183
:1006E000726475696E6F204C4C4300417264756989
:1006F0006E6F204C656F6E6172646F002211112461
:100700001FBECFEFDAE0DEBFCDBF11E0A0E0B1E069
:10071000ECE5F1E302C005900D92A234B107D9F7E0
:1007200025E0A2E4B1E001C01D92AC3DB207E1F7C3
:1007300013E0CFE7D3E004C02197FE010E94A61882
:10074000CE37D107C9F70E943F110C94AC180C9416
:1007500000002F923F924F925F926F927F928F9202
:100760009F92AF92BF92CF92DF92EF92FF920F9340
:100770001F93CF93DF93CDB7DEB766970FB6F8948C
:10078000DEBF0FBECDBF69837A838B839C83298BA9
:100790003A8B4B8B5C8B8091840590918505A09161
:1007A0008605B09187058D879E87AF87B88B20908F
:1007B00082053090830582E0882E912CA12CB12CEB
:1007C0001E8A1D8A10E803E48D859E85AF85B88951
:1007D00088169906AA06BB0608F08BC0D1016D9158
:1007E0007C9190E080E00E94F2166B017C012981EF
:1007F0003A814B815C810E94401687FF71C0F101F4
:100800006481758190E080E00E94F2166D837E83A2
:100810008F8398879B01AC0169817A818B819C8150
:100820000E94401687FF5CC0D10112966D917C91A9
:1008300090E080E00E94F21669877A878B879C8718
:10084000F1016681778190E080E00E94F2162985AF
:100850003A854B855C850E94D3152B013C01A7018D
:10086000960169817A818B819C810E94D3159B01BD
:10087000AC01C301B2010E94E8172B013C01A701A2
:1008800096016D817E818F8198850E94D3159B0191
:10089000AC01C301B2010E944A1629853A854B85F5
:1008A0005C850E94D41529893A894B895C890E940C
:1008B000D3156B017C0120E030E0A9010E94E31711
:1008C000181674F42E893D89412F502FB601C701A7
:1008D0000E94401687FF04C0CE8ADD8A1E2D0F2D90
:1008E000F2E08F0E911CA11CB11C84E0280E311C7B
:1008F0006BCF6E897D89812F902F66960FB6F89405
:10090000DEBF0FBECDBFDF91CF911F910F91FF9042
:10091000EF90DF90CF90BF90AF909F908F907F909F
:100920006F905F904F903F902F900895EAE6F1E02E
:10093000A0E0B8E000800EBC8111012C1197A0FD51
:10094000FDCF0192B9F70DB40895FC0180916901C2
:10095000882311F13FB7F89482E08093E900209159
:10096000F200822F90E01816190614F481E090E04E
:10097000882339F0289844E6409368014091F100BB
:100980004083222339F02091F200211103C02BE68D
:100990002093E8003FBF08958FEF9FEF08952FB792
:1009A000F89483E08093E9009091E800892F8072A9
:1009B00095FF04C09091F20080E4891B2FBF089539
:1009C0008091600181110DC082E080935C0184E020
:1009D00080935D0110925F0110925E0181E080932F
:1009E00060018CE591E00895CF93DF931F92CDB71E
:1009F000DEB76983DC01ED91FC910280F381E02D8B
:100A000041E050E0BE016F5F7F4F09950F90DF918D
:100A1000CF91089583E08093E9008091F2008823CC
:100A200019F08AE38093E80008950E94CF0490E0D3
:100A30000895CF93DF931F92CDB7DEB7FC01848575
:100A4000958597FD08C02FEF3FEF358724870F90DE
:100A5000DF91CF910895CE0101960E94A5040197E0
:100A600019F4898190E0F3CF8FEF9FEFF0CF0F93D0
:100A70001F93CF93DF931F92CDB7DEB78C01FC019C
:100A80008485958597FF0BC0CE0101960E94A50431
:100A9000019771F4898190E0F80195878487F801C6
:100AA000848595850F90DF91CF911F910F910895C7
:100AB0008FEF9FEFF1CFFC018485958597FD0BC0EB
:100AC0009FB7F89482E08093E9008091F2009FBF85
:100AD00090E0019608959FB7F89482E08093E90032
:100AE0008091F2009FBF90E008954091560150918F
:100AF0005701209154013091550142175307B4F426
:100B00009091E8009570E1F39091E80092FD19C092
:100B10008093F100809156019091570101968F7357
:100B20009927892B19F48EEF8093E8008091560164
:100B3000909157010196909357018093560181E05F
:100B4000089580E00895DF92EF92FF920F931F9334
:100B5000CF93DF93D82E8A01EB017B01E40EF51EC3
:100B6000CE15DF0559F0D7FE12C0FE0184910E9418
:100B7000750521968111F4CF0FEF1FEFC801DF91AA
:100B8000CF911F910F91FF90EF90DF900895888192
:100B9000EECF0F931F93CF93DF931F92CDB7DEB7A6
:100BA00082E0898342E450E067E876E080E80E94D2
:100BB000A3050E94E004DC0112960D911C91011521
:100BC000110589F0D801ED91FC910280F381E02DAF
:100BD000BE016F5F7F4FC801099597FD04C0F80102
:100BE00000851185ECCF89810F90DF91CF911F9106
:100BF0000F910895615030F02091F100FC012083A5
:100C00000196F8CF289884E6809368010895AF9202
:100C1000BF92CF92DF92EF92FF920F931F93CF93E9
:100C2000DF936C017B018B01040F151FEB015E014B
:100C3000AE18BF08C017D10759F06991D601ED91E0
:100C4000FC910190F081E02DC6010995892B79F77F
:100C5000C501DF91CF911F910F91FF90EF90DF9031
:100C6000CF90BF90AF9008953FB7F8948091430123
:100C700090914401A0914501B091460126B5A89BF1
:100C800005C02F3F19F00196A11DB11D3FBFBA2F1E
:100C9000A92F982F8827BC01CD01620F711D811DDE
:100CA000911D42E0660F771F881F991F4A95D1F763
:100CB00008958F929F92AF92BF92CF92DF92EF9260
:100CC000FF926B017C010E9434064B015C01C11450
:100CD000D104E104F104B9F00E94340668197909DD
:100CE0008A099B09683E73408105910580F321E0E4
:100CF000C21AD108E108F10888EE880E83E0981E38
:100D0000A11CB11CE4CFFF90EF90DF90CF90BF907B
:100D1000AF909F908F9008958F929F92AF92BF92C5
:100D2000CF92DF92EF92FF920F931F93CF93DF93B7
:100D30006C017B018A0180910C01882309F45CC05D
:100D400080916901882309F457C080915B0180FF7D
:100D500005C08091E00082608093E000E801B12C42
:100D60008AEFA82E93E0892E2AE3922E209711F481
:100D7000BB20D9F10E94CF0481110AC0AA94AA20F5
:100D8000D9F161E070E080E090E00E945906EECF7A
:100D90008C171D0611F00CF08C2F9FB7F8948092E1
:100DA000E9002091E80025FD02C09FBFDFCF282F7A
:100DB00030E0C21BD30BF701815020F041914093EA
:100DC000F100FACFE20EF31EBB2021F09092E80072
:100DD000B12CEBCF8091E80085FDE7CF9092E80041
:100DE000BB24B394209709F3F3CF5D9884E68093F6
:100DF0005A01101611063CF081E090E0F601938351
:100E0000828310E000E0C801DF91CF911F910F9124
:100E1000FF90EF90DF90CF90BF90AF909F908F901A
:100E200008952D9A0895BC0190E080E00C94590635
:100E30008FB18095807F669B88601C9B846008953D
:100E4000CF93C82F0E941807982F9C2381E09C13F2
:100E500080E0CF91089580E00C949604803891054D
:100E6000B8F460347105A0F420E191E061FD94E0F4
:100E700060FD990F62FD9295687F269FD001112435
:100E8000A80FA659BE4F8C9140FF03C0892B8C93AD
:100E9000089590958923FBCF2F923F924F925F92B6
:100EA0006F927F928F929F92AF92BF92CF92DF927A
:100EB000EF92FF920F931F93CF93DF93EC018B017F
:100EC0007A016901C61AD70AD7FE03C0D194C1942A
:100ED000D10847018C1A9D0A97FE03C09194819412
:100EE00091088C149D0454F49E2D8F2D7901292F87
:100EF000382F9C2F8D2FE801092F182FEC16FD0697
:100F000054F4902F812F8901292F382F9C2F8D2F5A
:100F1000E701E92EF82E17012C1A3D0A2901401A83
:100F2000510A57FE03C0519441945108310137FED4
:100F300003C08FEF681A780A759467948FEF0217D1
:100F400013070CF481E0A82E880FBB08EC16FD06F1
:100F5000A4F041E0BE01C8018C149D0414F0B80156
:100F6000CE010E942E076418750877FE04C00A0D92
:100F70001B1D620C731C2196E9CFDF91CF911F914D
:100F80000F91FF90EF90DF90CF90BF90AF909F9028
:100F90008F907F906F905F904F903F902F9008952B
:100FA0002F923F924F925F926F927F928F929F9279
:100FB000AF92BF92CF92DF92EF92FF920F931F9367
:100FC000CF93DF93CDB7DEB764970FB6F894DEBF4B
:100FD0000FBECDBFFB011A013A83298306E010E062
:100FE00042E050E060E070E06F01F12CE12CCB8634
:100FF000DC86ED86FE866C01F12CE12CCF86D88A4A
:10100000E98AFA8A2A013B0182E0480E511C611CE0
:10101000711C8091840590918505A0918605B09101
:101020008705481759076A077B0708F089C0C090F1
:101030008205D0908305DC82CB826B857C858D8593
:101040009E850E94F2169B01AC0160E070E080E892
:1010500092E40E944A164B015C016F857889898968
:101060009A890E94F2169B01AC0160E070E080E07A
:1010700093E40E944A166B017C018B819C81800F56
:10108000911F9C8B8B8BFC016081718189819A817E
:10109000681B790B90E080E00E94F216A501940194
:1010A0000E94E8170E94BC166B837C838D839E830D
:1010B000EB89FC893297608171816219730990E034
:1010C00080E00E94F216A70196010E94E8170E9494
:1010D000BC166F83788789879A87EB89FC89349758
:1010E00060817181E981FA816E1B7F0B90E080E065
:1010F0000E94F216A50194010E94E8170E94BC16F6
:101100004B018B899C890697FC0160817181621972
:10111000730990E080E00E94F216A70196010E94F8
:10112000E8170E94BC16CB012B813C814F8158856A
:10113000B4010E944C070C5F1F4FB301A20162CFA4
:1011400064960FB6F894DEBF0FBECDBFDF91CF918E
:101150001F910F91FF90EF90DF90CF90BF90AF90D5
:101160009F908F907F906F905F904F903F902F90C7
:1011700008958F929F92AF92BF92CF92DF92EF929B
:10118000FF920F931F93CF93DF936D3089F0C09040
:101190005201D09053016A30D1F410925101109253
:1011A000500188E0C80ED11CD0925301C092520168
:1011B00081E090E0DF91CF911F910F91FF90EF9030
:1011C000DF90CF90BF90AF909F908F900895009147
:1011D000500110915101E5E06E9FE0011124C653CA
:1011E000DF4F4801F12CF5E0E12CFF1629F0CE018C
:1011F0000196FE01E490EC01B12CA12C4E2D417022
:10120000B6016A0D7B1DC4010E942E07E694FFEF14
:10121000AF1ABF0A88E0A816B10481F7F394EFEF84
:101220008E1A9E0AF6E0FF12DECF0A5F1F4F109360
:10123000510100935001BCCF089590E080E00895E3
:101240002F923F924F925F926F927F928F929F92D6
:10125000AF92BF92CF92DF92EF92FF920F931F93C4
:10126000CF93DF93CDB7DEB7A0970FB6F894DEBF6C
:101270000FBECDBF7B015A016901209172053091EB
:101280007305409174055091750560916A057091E0
:101290006B0580916C0590916D050E94D41560934B
:1012A0006A0570936B0580936C0590936D05209192
:1012B00076053091770540917805509179056091D8
:1012C0006E0570916F0580917005909171050E9477
:1012D000D41560936E0570936F058093700590939D
:1012E000710588E00E942007882309F457C4809183
:1012F000800590918105892B09F450C460917A058D
:1013000070917B0580917C0590917D050E94551818
:1013100020E030E040E450E40E94E8172FE632E19C
:1013200043E05AE30E94E8179B01AC01609172050B
:101330007091730580917405909175050E94D41584
:10134000609372057093730580937405909375058F
:1013500088E00E942007882309F424C48091800536
:1013600090918105892B09F41DC460917A057091D3
:101370007B0580917C0590917D050E94451620E0BB
:1013800030E040E450E40E94E8172FE632E143E009
:101390005AE30E94E8179B01AC016FE672E183E01B
:1013A0009AE30E94D3159B01AC0160917605709180
:1013B000770580917805909179050E94D415609306
:1013C000760570937705809378059093790580E290
:1013D0000E94200720E030E0A901882321F02AE0C4
:1013E00037ED43EA5DE360917A0570917B0580916A
:1013F0007C0590917D050E94D31560937A057093CA
:101400007B0580937C0590937D0580E40E942007F6
:1014100020E030E0A901882321F02AE037ED43EAFB
:101420005DE360917A0570917B0580917C059091D8
:101430007D050E94D41560937A0570937B05809397
:101440007C0590937D0588E00E942007209180050F
:1014500030918105882309F4AAC351E040E02115A9
:10146000310509F450E0852F942F281B390B309358
:10147000810520938005B80190E080E00E94F2167B
:1014800069877A878B879C87B50190E080E00E940E
:10149000F2169B01AC0160E070E080E892E40E94EB
:1014A0004A166D877E878F87988B29853A854B856D
:1014B0005C8560916E0570916F05809170059091CB
:1014C00071050E94D3152D853E854F8558890E9450
:1014D000E8170E94BC164B012B01B60190E080E09A
:1014E0000E94F216698B7A8B8B8B9C8BB70190E0F4
:1014F00080E00E94F2169B01AC0160E070E080E0A9
:1015000093E40E944A166D8B7E8B8F8B988F29896E
:101510003A894B895C8960916A0570916B0580916D
:101520006C0590916D050E94D3152D893E894F89D8
:10153000588D0E94E8170E94BC166B013B01B40154
:101540006D5F7F4F41E0C6010E942E07B4016350DA
:10155000710941E0C6010E942E07C601039641E0D1
:10156000B4010E942E07C601039741E0B4010E9416
:101570002E0781E090E09E838D83912C812C83E067
:1015800090E09A8389838AEF282E33243A940EEFD1
:101590001FEF8FEF881A980A8D819E8102969E8395
:1015A0008D83080F191F5401A60CB71C41E0E98078
:1015B000FA80E40CF51CB701C5010E942E076301F7
:1015C000C818D90841E0B701C6010E942E0741E0C2
:1015D000720189819A81E81AF90AB701C5010E944E
:1015E0002E0741E0B701C6010E942E077201E80CE8
:1015F000F91C41E0B701C980DA80C60CD71CC601CE
:101600000E942E0741E0B701730189819A81E81A8F
:10161000F90AC7010E942E075201A818B90841E033
:10162000B501C6010E942E0741E0B501C7010E9425
:101630002E0789819A81881699060CF4BBC22985E8
:101640003A854B855C8560916E0570916F05809140
:101650007005909171050E94D3152D853E854F85AB
:1016600058890E94E8176D837E838F83988720E0D6
:1016700030E040E05FE360917A0570917B058091F6
:101680007C0590917D050E94D4154B015C010E9460
:1016900045162B013C0129893A894B895C89609167
:1016A0006A0570916B0580916C0590916D050E94A3
:1016B000D3152D893E894F89588D0E94E8176B01FB
:1016C0007C01C501B4010E9455184B015C0120E06A
:1016D00030E040EE50E4C301B2010E94E8172D81D2
:1016E0003E814F8158850E94D4150E94BC166983A3
:1016F0007A838B839C8320E030E040EE50E4C50188
:10170000B4010E94E8179B01AC01C701B6010E9419
:10171000D3150E94BC16698F7A8F8B8F9C8F20E027
:1017200030E040E450E4C301B2010E94E8172D818B
:101730003E814F8158850E94D4150E94BC162B0112
:1017400020E030E040E450E4C501B4010E94E81715
:101750009B01AC01C701B6010E94D3150E94BC16C3
:10176000CB0129813A81498D5A8DB2010E944C07E3
:1017700029853A854B855C8560916E0570916F0572
:1017800080917005909171050E94D3152D853E853D
:101790004F8558890E94E8176D837E838F839887D1
:1017A00020E030E040E05FE360917A0570917B05D6
:1017B00080917C0590917D050E94D3154B015C01C1
:1017C0000E9445162B013C0129893A894B895C8985
:1017D00060916A0570916B0580916C0590916D0523
:1017E0000E94D3152D893E894F89588D0E94E81794
:1017F0006B017C01C501B4010E9455184B015C01CD
:1018000020E030E040EE50E4C301B2010E94E8174E
:101810002D813E814F8158850E94D4150E94BC16AF
:1018200069837A838B839C8320E030E040EE50E430
:10183000C501B4010E94E8179B01AC01C701B601C4
:101840000E94D3150E94BC16698F7A8F8B8F9C8F54
:1018500020E030E040E450E4C301B2010E94E81708
:101860002D813E814F8158850E94D4150E94BC165F
:101870002B0120E030E040E450E4C501B4010E94B7
:10188000E8179B01AC01C701B6010E94D3150E9465
:10189000BC16CB0129813A81498D5A8DB2010E9433
:1018A0004C0788E00E942007882309F492C18091A8
:1018B000800590918105892B09F48BC129853A8592
:1018C0004B855C8560916E0570916F058091700508
:1018D000909171050E94D3152D853E854F855889BD
:1018E0000E94E8174B015C01C0907A05D0907B05FF
:1018F000E0907C05F0907D05C701B6010E94451679
:101900002B013C0129893A894B895C8960916A05E0
:1019100070916B0580916C0590916D050E94D315B7
:101920002D893E894F89588D0E94E8176D837E83EB
:101930008F839887C701B6010E94551869837A83FF
:101940008B839C832AE939E949E95EE3C701B60143
:101950000E94D4156B017C010E944516698F7A8F15
:101960008B8F9C8FC701B6010E9455186B017C01BB
:1019700020E030E040E151E4C301B2010E94E817E9
:10198000A50194010E94D4150E94BC166D8F7E8F14
:101990008F8F98A320E030E040E151E469817A81A3
:1019A0008B819C810E94E8179B01AC016D817E8137
:1019B0008F8198850E94D3150E94BC162B0120E0D0
:1019C00030E040E450E4698D7A8D8B8D9C8D0E94CF
:1019D000E817A50194010E94D4150E94BC164B0182
:1019E00020E030E040E450E4C701B6010E94E8176F
:1019F0009B01AC016D817E818F8198850E94D315FA
:101A00000E94BC16CB012D8D3E8DA201B4010E9417
:101A10004C0729853A854B855C8560916E057091F0
:101A20006F0580917005909171050E94D3152D85E9
:101A30003E854F8558890E94E8172B013C01C090D4
:101A40007A05D0907B05E0907C05F0907D05C7017C
:101A5000B6010E94451669877A878B879C872989FA
:101A60003A894B895C8960916A0570916B05809118
:101A70006C0590916D050E94D3152D893E894F8983
:101A8000588D0E94E8174B015C01C701B6010E9406
:101A900055186D877E878F87988B2AE939E949E940
:101AA0005EE3C701B6010E94D3156B017C010E9461
:101AB0004516698B7A8B8B8B9C8BC701B6010E9474
:101AC00055186B017C0120E030E040E151E469856C
:101AD0007A858B859C850E94E817A30192010E945C
:101AE000D4150E94BC1669877A878B879C8720E073
:101AF00030E040E151E46D857E858F8598890E94B4
:101B0000E8179B01AC01C501B4010E94D3150E94E6
:101B1000BC166D877E878F87988B20E030E040E48D
:101B200050E469897A898B899C890E94E817A3010E
:101B300092010E94D4150E94BC162B0120E030E0D7
:101B400040E450E4C701B6010E94E8179B01AC01D4
:101B5000C501B4010E94D3150E94BC16CB01298592
:101B60003A854D855E85B201A0960FB6F894DEBF2A
:101B70000FBECDBFDF91CF911F910F91FF90EF90DE
:101B8000DF90CF90BF90AF909F908F907F906F909D
:101B90005F904F903F902F900C944C0720E030E0E6
:101BA000A901C4CB2FE632E143E05AE3FECB90E03B
:101BB00080E05BCC0F3F100709F4EBCC89819A8160
:101BC00001979A83898392E0290E311C020D131D1F
:101BD000E0CCA0960FB6F894DEBF0FBECDBFDF916C
:101BE000CF911F910F91FF90EF90DF90CF90BF901A
:101BF000AF909F908F907F906F905F904F903F90AD
:101C00002F9008950C94BD151F920F920FB60F924E
:101C100011248F939F938091E1009091E100937F35
:101C20009093E10083FF0FC01092E90091E0909340
:101C3000EB001092EC0092E39093ED00109269019A
:101C400098E09093F00082FF22C093E09093E90027
:101C50009091F200992319F09AE39093E800909103
:101C60005A01992341F090915A01915090935A0151
:101C7000911101C05D9A90916801992341F0909172
:101C80006801915090936801911101C0289A84FFD6
:101C900018C08091E2008E7E81608093E200809186
:101CA000E1008F7E8093E10080915B018E7E8061F8
:101CB00080935B019F918F910F900FBE0F901F90AB
:101CC000189580FFF7CF8091E2008E7E806180932F
:101CD000E2008091E1008E7E8093E10080915B01C3
:101CE0008E7E8160E5CF1F920F920FB60F92112466
:101CF000CF92DF92EF92FF920F931F932F933F9318
:101D00004F935F936F937F938F939F93AF93BF9303
:101D1000EF93FF93CF93DF93CDB7DEB76C97DEBF22
:101D2000CDBF1092E9008091E80083FF25C068E0F4
:101D3000CE0145960E94FA0582EF8093E8008D89D6
:101D400087FF39C09091E80090FFFCCF982F9076E4
:101D500009F034C19E894F89588D2F89F88C9111D3
:101D600031C0803861F5809159018093F100109263
:101D7000F1008EEF8093E8006C960FB6F894DEBF0A
:101D80000FBECDBFDF91CF91FF91EF91BF91AF918A
:101D90009F918F917F916F915F914F913F912F9183
:101DA0001F910F91FF90EF90DF90CF900F900FBE9B
:101DB0000F901F9018959EEF9093E800C7CF109258
:101DC000F100D5CF913059F48111D3CF4130510575
:101DD00081F6809159018D7F80935901CACF93304C
:101DE00049F48111C6CF4130510519F6809159014E
:101DF0008260F2CF953041F48091E80080FFFCCF03
:101E000020682093E300B5CF963009F0A9C00B8D70
:101E10001C8D22E01092E900109257011092560199
:101E2000F2122EC010925501109254010E94C90561
:101E30001F8299E09983FA8291E09E8390EA9887C5
:101E40009AEF99872091560130915701275F3F4FB4
:101E50003C832B838D831092E900109257011092DE
:101E60005601109355010093540149E050E0BE0122
:101E70006F5F7F4F80E00E94A3050E94C90579CF64
:101E800010935501009354010E94E004DC01129666
:101E90000D911C910115110509F451C1D801ED9165
:101EA000FC910480F581E02DBE016B5E7F4FC8017F
:101EB0000995009709F03EC1F80100851185EACF28
:101EC000F3E0FF120EC08F89882309F440C08230EE
:101ED00061F440E860E18BEE96E00E94EF10811122
:101EE00048CF81E28093EB0047CF813029F440E86E
:101EF0006BE08FED96E0F1CF833099F70E94E0041C
:101F0000DC011296ED90FC908E010F5F1F4F68016F
:101F1000E114F10479F0D701ED91FC910680F7818D
:101F2000E02DB801C7010995080F111DF701E084E4
:101F3000F184EECFD8011C92F60101900020E9F760
:101F40003197BF016C197D0940E0C601C6CF69EC2D
:101F500076E0FB01449150E080E80E94A30509CFA0
:101F6000973009F4BECF983021F481E08093F100DE
:101F700000CF993009F0FDCE837009F0B2CFEEE1C9
:101F8000F1E081E031E096E32191222371F080932A
:101F9000E9003093EB00DF0111972C912093EC00C6
:101FA0009093ED008F5F873079F78EE78093EA009A
:101FB0001092EA008F8980936901DBCE8B8D9C8D16
:101FC0001092E9001092570110925601909355011A
:101FD00080935401898D811192C08E899D89913A97
:101FE00049F4813209F07DCF47E050E065E071E0CF
:101FF00080E0B3CF913209F074CF833269F48F89D6
:10200000988DB0E0A0E08093010190930201A0932D
:102010000301B0930401ADCE803269F48091E800F1
:1020200082FFFCCF67E085E091E00E94FA058BEF2C
:102030008093E8009ECE823209F09BCE8F898093F8
:102040000C01EEEFFFE7859194918B3F9C4D51F190
:10205000E0E0F8E08091050190910601A091070170
:10206000B0910801803B9440A105B105F1F4809145
:102070000C0180FD1AC0EE3F8AE0F80789F587E77A
:1020800097E791838083809160008093580188E175
:102090009BE00FB6F894A895809360000FBE9093D4
:1020A000600067CEEEEFFAE0D5CF8081918187376F
:1020B000974709F05ECEA895809160008861809373
:1020C00060008091580180936000EE3F2AE0F207A3
:1020D00089F08091FE0A9091FF0A9183808349CE16
:1020E000808191818737980751F29093FF0A8093FE
:1020F000FE0AC5CF1092FF0A1092FE0A3ACE0E9445
:10210000E004DC0112960D911C910115110509F4F2
:10211000E8CED801ED91FC910190F081E02DBE0157
:102120006B5E7F4FC8010995811123CEF8010085B0
:102130001185EBCF181619060CF41BCED2CEF1E0A8
:10214000FF12BECE6DEC76E004CF1F920F920FB659
:102150000F9211242F933F938F939F93AF93BF932D
:102160008091470190914801A0914901B0914A01A5
:102170003091420123E0230F2D3758F50196A11D20
:10218000B11D209342018093470190934801A09391
:102190004901B0934A018091430190914401A0917B
:1021A0004501B09146010196A11DB11D80934301E7
:1021B00090934401A0934501B0934601BF91AF9124
:1021C0009F918F913F912F910F900FBE0F901F9075
:1021D000189526E8230F0296A11DB11DD2CFEF92CC
:1021E000FF920F931F93CF93DF93F82E192FE62EB4
:1021F000042F81E0860F880F0E94750583E00E94FE
:102200007505CF2DD12FEC0EFD2EF11CCE15DF055F
:10221000B9F007FF13C0FE0184910E947505182FC5
:1022200080E00E947505812321968111EFCFDF9117
:10223000CF911F910F91FF90EF9008958881EDCF7E
:1022400081E0F5CFE8E8F5E01382128288EE93E0B2
:10225000A0E0B0E084839583A683B78388E291E011
:10226000918380838FEF9FEF95878487E8EDF5E07A
:10227000138212828AE391E0918380830895CF9341
:10228000DF93CDB7DEB728970FB6F894DEBF0FBE49
:10229000CDBF789484B5826084BD84B5816084BDEF
:1022A00085B5826085BD85B5816085BD80916E00F4
:1022B000816080936E001092810080918100826025
:1022C0008093810080918100816080938100809162
:1022D0008000816080938000809191008260809373
:1022E0009100809191008160809391008091900095
:1022F0008160809390008091C10084608093C100D0
:102300008091C10082608093C1008091C100816092
:102310008093C1008091C30081608093C30080914D
:10232000C00082608093C0008091C2008160809371
:10233000C20080917A00846080937A0080917A0054
:10234000826080937A0080917A00816080937A0025
:1023500080917A00806880937A00109269011092CF
:10236000590110925B018091D70081608093D70062
:1023700080EA8093D80089B5806189BD89B5826083
:1023800089BD09B400FEFDCF61E070E080E090E01F
:102390000E9459068091D8008F7C80618093D8007C
:1023A0008091E000807F8093E0008091E1008E7E4C
:1023B0008093E1008DE08093E200559A209A81ECB1
:1023C00080937C0085B1806F85B984B1877E84B9A4
:1023D00084B1876E84B95E9A5F988AB1806D8AB93C
:1023E000769A6E9881B3806F81BB899880B38D7027
:1023F00080BB80E58CBD81E08DBD85E090E00E94D2
:1024000013075F9A85E090E00E9413075E985C983E
:10241000EAE7F6E087E896E024912EBD00000DB4CF
:1024200007FEFDCF31968E179F07B1F75C9A81E8C2
:1024300080936400809165008160809365000E94B4
:102440002B0780E80E9420078823A9F05C9885EA82
:102450008EBD00000DB407FEFDCF5C9A2E982F981C
:102460002D988091640080628093640081E083BF36
:10247000889513BEFCCF84E00E942007882309F4CE
:1024800048C02D9884E80E9420078823E1F00E942C
:10249000110788EC90E00E9413072F9882E090E0EB
:1024A0000E94BD158F3F29F06FEF82E090E00E94FF
:1024B000C51584EF91E00E9413072F9A84E80E94CB
:1024C00020078111FBCF84E10E9420078823E1F0DF
:1024D0000E94110788EC90E00E9413072E9882E07A
:1024E00090E00E94BD15882329F060E082E090E032
:1024F0000E94C51584EF91E00E9413072E9A84E193
:102500000E9420078111FBCF88EC90E00E94130706
:10251000B2CF0E94110782E090E00E94020E882351
:1025200009F48CC03E9A3F9A81E090E00E94020E2E
:10253000282F2470722E81FF11C021112E9801EFD7
:102540001FEFE8E0EE2EF12C80E40E9420078823A4
:1025500009F477C02E9A2F9A0E94110782E390E027
:102560000E9413070E9418078111F8CF81E280931F
:10257000000180E090E0A0E8B2E480936A059093C7
:102580006B05A0936C05B0936D0580E090E0A0E032
:10259000B2E480936E0590936F05A0937005B0939D
:1025A00071051092720510927305109274051092C5
:1025B00075051092760510927705109278051092A5
:1025C000790510927A0510927B0510927C05109285
:1025D0007D0588EE93E090937F0580937E05909330
:1025E0008105809380058DE091E090938305809331
:1025F000820588E090E0A0E0B0E0809384059093AD
:102600008505A0938605B09387058FB7F894409110
:102610004701509148016091490170914A018FBF73
:1026200080914D01882309F4CBC010924D0140E008
:1026300050E0452B51F30E940000E7CF3E983F98B1
:1026400073CF772029F00430110511F42E9A2F98BA
:1026500081E00E949604980117FF04C022273327C7
:10266000201B310B27703327C80117FD079673E035
:10267000959587957A95E1F717FF05C00197A70112
:10268000421B530B9A01AC015695542F4427579582
:10269000479546595E4FB0E0A0E02701421A530A21
:1026A0008E3F6FEF960709F43BC06A01E4E9CE0E56
:1026B000D11C5A0170E060E0FD01E653FA4F4F0172
:1026C0008F3F980779F0F401E60FF71FE491F0E0EF
:1026D0001F01022E01C0220C0A94EAF7F50164885A
:1026E0002628248A2115310581F0F401E60FF71F11
:1026F000E491F0E01F01042C02C0359427940A9461
:10270000E2F7F6016080262820826F5F7F4FFFEF9F
:10271000CF1ADF0AEFEFAE1ABE0A6835710581F6EF
:102720000196A85ABF4F40585F4FA03BB10509F032
:10273000B7CF0E942B078FE090E00E9413070F5F36
:102740001F4F0931110509F0FFCE772011F02F9AA4
:102750002D9880E991E00E9413070E94110781E003
:1027600090E00E94020E80FFF9CE8AE090E00E9485
:10277000020E9FEF980F9E3F08F0F0CE22E330E06C
:10278000309351012093500128E330E030935301FE
:10279000209352010BE010E0682F88ED95E00E9435
:1027A000B908C8010E94020E0F5F1F4F01311105C9
:1027B00099F70E942B0788EE93E00E941307CECE74
:1027C00090914E01F42FF91B9F2F20910001F217D9
:1027D00048F49F5F921708F02ACF21E023BF889525
:1027E00013BE25CF91E090934D0140934E0120916F
:1027F0004B0130914C012F5F3F4F30934C012093A0
:102800004B01EAE6F1E081118FEF0024819381937F
:10281000819381930394D1F7109253011092520146
:1028200010925101109250010E94180780934F019D
:1028300080906E0590906F05A0907005B090710526
:10284000C0906A05D0906B05E0906C05F0906D0526
:10285000A5019401C701B6010E94A9032B013C0107
:1028600020E030E040E452E40E94E3172091DA05D2
:102870003091DB053C832B8318160CF07DC0EAE316
:10288000F1E0FA83E98310E000E030E020E040E08E
:1028900051E060E075E0CE0101960E94200930E031
:1028A00020E050E040E060E071E080E095E00E94D0
:1028B000D007C0907205D0907305E0907405F09039
:1028C00075058090760590907705A0907805B0907A
:1028D0007905609180057091810590E080E00E940B
:1028E000F2162B013C0160917E0570917F0590E00E
:1028F00080E00E94F2169B01AC01C301B2010E946C
:102900004A1620E030E040E852E40E94E8172B012C
:102910003C01AC019B0160E070E080E892E40E9421
:10292000D3150E94BC166D837E838F839887C30165
:10293000B2010E94C316262E312C8D819E81280E55
:10294000391E3C0197FF02C0712C612C23018101CB
:1029500091E42916310414F000E410E04016510609
:102960000CF070C041E0B2018FE790E00E942E07AA
:10297000EFEF4E1A5E0AEBCF4AE351E05A834983E8
:10298000A3019201C501B4010E94D41520E030E0FA
:1029900040E452E40E94D3150E94C3164B0120E08C
:1029A00030E040E852E4C701B6010E94D3150E940E
:1029B000C31684019B0140E450E060E870E0CE0162
:1029C00001960E94200980906E0590906F05A0905E
:1029D0007005B0907105C0906A05D0906B05E090CD
:1029E0006C05F0906D05A5019401C701B6010E9428
:1029F000A9039B01AC01C501B4010E94D41520E0DC
:102A000030E040E452E40E94D3150E94C3164B010B
:102A100020E030E040E852E4C701B6010E94D3153F
:102A20000E94C3169401AB0160E470E080E890E07E
:102A30003ECF41E0B30180E890E00E942E07FFEF17
:102A40006F1A7F0A60167106A4F3E4E4F2E095E1E0
:102A5000915059F4E4E4F3E095E1915061F08191F3
:102A6000DF01119780628C93F8CF8191DF0111977C
:102A700084608C93EDCF0AE010E041E0B8018AE574
:102A800090E00E942E070F5F1F4F0E311105A9F72E
:102A90000AE010E041E0B8018DE690E00E942E07C8
:102AA0000F5F1F4F0E311105A9F72AE939E949E9EE
:102AB0005EE3C501B4010E94E3170EE110E01816B1
:102AC0001CF12AE939E949E95EEBC501B4010E942C
:102AD00040160AE010E087FD17C020E030E040E239
:102AE00051E4C501B4010E94E8172AE939E949E92E
:102AF0005EE30E944A1620E030E040EA51E40E9482
:102B0000D4150E94BC168B012AE939E949E95EE334
:102B1000C701B6010E94E3174EE650E018161CF1FB
:102B20002AE939E949E95EEBC701B6010E9440167E
:102B30004AE550E087FD17C020E030E040E251E474
:102B4000C701B6010E94E8172AE939E949E95EE3BD
:102B50000E944A1620E030E048EC52E40E94D4156E
:102B60000E94BC16AB01980164E170E084E690E03D
:102B70000E944C070E942B075ACDF999FECF92BDB7
:102B800081BDF89A992780B50895262FF999FECF2F
:102B90001FBA92BD81BD20BD0FB6F894FA9AF99A7A
:102BA0000FBE019608955058BB27AA270E94EB1527
:102BB0000C9495170E945C1738F00E94631720F060
:102BC00039F49F3F19F426F40C9459170EF4E0954C
:102BD000E7FB0C945317E92F0E94BA1758F3BA1762
:102BE000620773078407950720F079F4A6F50C9423
:102BF000DC170EF4E0950B2EBA2FA02D0B01B901B6
:102C000090010C01CA01A0011124FF27591B99F062
:102C1000593F50F4503E68F11A16F040A22F232F6E
:102C2000342F4427585FF3CF469537952795A795BE
:102C3000F0405395C9F77EF41F16BA0B620B730B65
:102C4000840BBAF09150A1F0FF0FBB1F661F771FD6
:102C5000881FC2F70EC0BA0F621F731F841F48F48B
:102C6000879577956795B795F7959E3F08F0B0CF14
:102C70009395880F08F09927EE0F979587950895FB
:102C80000E942F1708F481E008950E946C17E395C5
:102C90000C94A6170E945E160C9495170E94631759
:102CA00058F00E945C1740F029F45F3F29F00C9423
:102CB000531751110C94DD170C9459170E94BA1731
:102CC00068F39923B1F3552391F3951B550BBB275B
:102CD000AA2762177307840738F09F5F5F4F220FA0
:102CE000331F441FAA1FA9F335D00E2E3AF0E0E897
:102CF00032D091505040E695001CCAF72BD0FE2FE1
:102D000029D0660F771F881FBB1F26173707480774
:102D1000AB07B0E809F0BB0B802DBF01FF2793582C
:102D20005F4F3AF09E3F510578F00C9453170C9486
:102D3000DD175F3FE4F3983ED4F38695779567956A
:102D4000B795F7959F5FC9F7880F911D9695879561
:102D500097F90895E1E0660F771F881FBB1F621780
:102D600073078407BA0720F0621B730B840BBA0B3E
:102D7000EE1F88F7E09508950E94C3166894B1117C
:102D80000C94DD1708950E94C21788F09F5798F0A1
:102D9000B92F9927B751B0F0E1F0660F771F881F60
:102DA000991F1AF0BA95C9F714C0B13091F00E947A
:102DB000DC17B1E008950C94DC17672F782F882773
:102DC000B85F39F0B93FCCF3869577956795B395A1
:102DD000D9F73EF490958095709561957F4F8F4F10
:102DE0009F4F0895E89409C097FB3EF49095809515
:102DF000709561957F4F8F4F9F4F9923A9F0F92FC1
:102E000096E9BB279395F695879577956795B7953E
:102E1000F111F8CFFAF4BB0F11F460FF1BC06F5F24
:102E20007F4F8F4F9F4F16C0882311F096E911C036
:102E3000772321F09EE8872F762F05C0662371F057
:102E400096E8862F70E060E02AF09A95660F771F6B
:102E5000881FDAF7880F9695879597F90895990F47
:102E60000008550FAA0BE0E8FEEF16161706E80754
:102E7000F907C0F012161306E407F50798F0621B75
:102E8000730B840B950B39F40A2661F0232B242B4A
:102E9000252B21F408950A2609F4A140A6958FEF69
:102EA000811D811D089597F99F6780E870E060E0BB
:102EB00008959FEF80EC089500240A9416161706D3
:102EC00018060906089500240A941216130614061B
:102ED000050608950C9459170E94C217D8F3E89478
:102EE000E0E0BB279F57F0F02AED3FE049EC06C039
:102EF000EE0FBB0F661F771F881F28F0B23A6207DC
:102F00007307840728F0B25A620B730B840BE395A6
:102F10009A9572F7803830F49A95BB0F661F771F29
:102F2000881FD2F790480C945F18092E0394000C68
:102F300011F4882352F0BB0F40F4BF2B11F460FF53
:102F400004C06F5F7F4F8F4F9F4F0895EF93E0FF57
:102F500007C0A2EA2AED3FE049EC5FEB0E94EB15C7
:102F60000E9495170F90039401FC9058ECEAF0E052
:102F70000C946B1857FD9058440F551F59F05F3F44
:102F800071F04795880F97FB991F61F09F3F79F08B
:102F900087950895121613061406551FF2CF46950D
:102FA000F1DF08C0161617061806991FF1CF86958F
:102FB0007105610508940895E894BB276627772773
:102FC000CB0197F908950E942F1708F48FEF089509
:102FD0000E94FB170C9495170E945C1738F00E9412
:102FE000631720F0952311F00C9453170C94591784
:102FF00011240C94DD170E94BA1770F3959FC1F34A
:10300000950F50E0551F629FF001729FBB27F00D96
:10301000B11D639FAA27F00DB11DAA1F649F6627EB
:10302000B00DA11D661F829F2227B00DA11D621F3A
:10303000739FB00DA11D621F839FA00D611D221FF4
:10304000749F3327A00D611D231F849F600D211DD8
:10305000822F762F6A2F11249F5750409AF0F1F05B
:1030600088234AF0EE0FFF1FBB1F661F771F881FC4
:1030700091505040A9F79E3F510580F00C94531792
:103080000C94DD175F3FE4F3983ED4F38695779573
:103090006795B795F795E7959F5FC1F7FE2B880F6A
:1030A000911D9695879597F908959F930E946C17A7
:1030B0000F9007FCEE5F0C94A6179F3F31F09150E4
:1030C00020F4879577956795B795880F911D96950C
:1030D000879597F908959F938F937F936F93FF93AD
:1030E000EF939B01AC010E94E817EF91FF910E94C2
:1030F0007F182F913F914F915F910C94E817DF93C8
:10310000CF931F930F93FF92EF92DF927B018C017D
:10311000689406C0DA2EEF010E94FB17FE01E894C6
:10312000A5912591359145915591A6F3EF010E9406
:10313000EB15FE019701A801DA9469F7DF90EF9093
:10314000FF900F911F91CF91DF910895EE0FFF1F18
:0C3150000590F491E02D0994F894FFCF55
:10315C0010FFFFFFFF00E10000000000000000F680
:10316C0000840396004C0496000005F60000C18014
:10317C008100000000000000F4048C0615050A050F
:10318C005B051905370500000000B90807061D0985
:02319C001C090C
:00000001FF
